:060000000A128A11122809
:10000800FE00030EF1000408F2000A08F300831250
:1000180003137F08F4000A128A1130290A128A1180
:10002800152883120313AC01AD01AE0183010A1236
:100038008A111E288312031385018601870188010E
:10004800890183160317890101308800013083165E
:10005800031385000130860087018801F830890084
:10006800083081009F014130831203139F00FF3045
:100078008800023083120313A8008630A700983046
:10008800A600A60B4528A70B4528A80B4528000065
:10009800831203138801023083120313A8008630E9
:1000A800A7009830A600A60B5728A70B5728A80B1F
:1000B8005728000083120313AA01AB010A128A1100
:1000C80076210A128A118A2883120313A9018A2821
:1000D80083120313A901A90A8A2802308312031381
:1000E800A6002608A9008A280A128A11B4200A1232
:1000F8008A11013A03196828033A03196C28063A49
:10010800031971280C3A031971288A2801308312BF
:100118000313AA070318AB0A0030AB0703302B02FE
:10012800E93003192A02031C9E280A128A11862123
:100138000A128A110330831203132B02EA300319BF
:100148002A02031CA928AA01AB01061878288312E1
:10015800031329082C3E84008313000888008A288A
:10016800831203130808A0002008A4001030880098
:100178000A128A1186210A128A1183120313A00017
:100188002008A300A30EA30CA30C0330A305D828B2
:10019800A501A50AE6280230D4280430D42808305E
:1001A800A0002008A500E6282308003A0319CC2857
:1001B800013A0319CF28033A0319D128013A031940
:1001C800D328E6282408C0392504103888000A12E4
:1001D8008A115D210A128A11003A031DBC28831274
:1001E80003138801023083120313A2008630A10092
:1001F8009830A000A00BFE28A10BFE28A20BFE2819
:1002080000008312031325088800033083120313A8
:10021800A2000830A1007630A000A00B1129A10B84
:100228001129A20B1129000083120313880102303F
:1002380083120313A2008630A1009830A000A00BFF
:100248002329A10B2329A20B2329000083120313BE
:1002580024088800250808000C1F34290130352996
:100268000030F0009F183A2901303B290030700512
:100278000038031944290C130130F0007008AC074A
:100288000C1C4B290C100130F0007008AD078B1CBA
:1002980052298B100130F0007008AE077408FF0077
:1002A80073088A0072088400710E8300FE0E7E0EA9
:1002B80009008312031306080139F5007508F700D1
:1002C8001A30F600F830F500F50B6829F60B6829A6
:1002D800000083120313060801397706031D5D2900
:1002E80077080800D0308B008316031301174130BC
:1002F8008C00F430831203138F0024308E003130C9
:1003080090000800831203139F149F1889291E0860
:020318000800DB
:04400E00E4C0FFFE0D
:00000001FF
