:060000000A128A11122809
:10000800FE00030EF1000408F2000A08F300831250
:1000180003137F08F4000A128A1118290A128A1198
:10002800152883120313AC01AD01AE0183010A1236
:100038008A111E288312031385018601870188010E
:10004800890183160317890101308800013083165E
:10005800031385000130860087018801F830890084
:10006800083081009F014130831203139F00FF3045
:100078008800023083120313A8008630A700983046
:10008800A600A60B4528A70B4528A80B4528000065
:10009800831203138801023083120313A8008630E9
:1000A800A7009830A600A60B5728A70B5728A80B1F
:1000B8005728000083120313A901AA010A128A1102
:1000C8005E210A128A118A2883120313AB018A2837
:1000D80083120313AB01AB0A8A280230831203137D
:1000E800A6002608AB008A280A128A119C200A1248
:1000F8008A11013A03196828033A03196C28063A49
:10010800031971280C3A031971288A280A128A11CE
:100118006E210A128A118312031306187828831293
:1001280003132B082C3E84008313000888008A28B8
:10013800831203130808A0002008A40010308800C8
:100148000A128A116E210A128A1183120313A0005F
:100158002008A300A30EA30CA30C0330A305C028FA
:10016800A501A50ACE280230BC280430BC280830D6
:10017800A0002008A500CE282308003A0319B428B7
:10018800013A0319B728033A0319B928013A0319A0
:10019800BB28CE282408C0392504103888000A1244
:1001A8008A1145210A128A11003A031DA4288312D4
:1001B80003138801023083120313A2008630A100C2
:1001C8009830A000A00BE628A10BE628A20BE62891
:1001D80000008312031325088800033083120313D9
:1001E800A2000830A1007630A000A00BF928A10BCE
:1001F800F928A20BF92800008312031388010230A2
:1002080083120313A2008630A1009830A000A00B2F
:100218000B29A10B0B29A20B0B2900008312031336
:1002280024088800250808000C1F1C2901301D29F6
:100238000030F0009F182229013023290030700572
:10024800003803192C290C130130F0007008AC0792
:100258000C1C33290C100130F0007008AD078B1C02
:100268003A298B100130F0007008AE077408FF00BF
:1002780073088A0072088400710E8300FE0E7E0ED9
:1002880009008312031306080139F5007508F70001
:100298001A30F600F830F500F50B5029F60B502906
:1002A800000083120313060801397706031D452948
:1002B8007708080083160313011741308C00F430C7
:1002C800831203138F0024308E0031309000D03019
:1002D8008B000800831203139F149F1871291E08AE
:0202E80008000C
:04400E00E4C0FFFE0D
:00000001FF
