:060000000A128A11FC2F18
:100F2800A43083120317870020308900A23083166B
:100F38000313970008008030831603139F00433083
:100F4800831203139F009F18A72F1F1083160313E4
:100F58001E08080083120313850186018701880192
:100F6800890183160317890101308800013083162F
:100F7800031385000130860087018801F830890055
:100F8800083081009F014130831203139F00FF3016
:100F980088000230F2008630F1009930F000F00B42
:100FA800D32FF10BD32FF20BD32F83120313880106
:100FB8000230F2008630F1009930F000F00BE22F99
:100FC800F10BE22FF20BE22F0A128A1194270A1270
:100FD8008A11F22F403083120313880083120317FB
:100FE800071BEE2F0A128A119F270A128A11EF2F68
:080FF80083010A128A11AE2FD9
:04400E00E4C0FFFE0D
:00000001FF
