:060000000A128A11122809
:10000800FE00030EF0000408F1000A08F200831253
:1000180003137F08F3000A128A1168280A128A114A
:1000280015280A128A11AE200A128A11F7000A123C
:100038008A11AF20F80083010A128A11232883123B
:100048000313850186018701880189018316031737
:1000580089010130880001308316031385000130BF
:10006800860087018801F8308900083081009F01E7
:100078004130831203139F00FF3088000230F600DE
:100088008630F5009930F400F40B4828F50B482821
:10009800F60B48288312031388010230F6008630D5
:1000A800F5009930F400F40B5728F50B5728F60B98
:1000B80057280A128A1195200A128A110A128A11DF
:1000C800A2200A128A1167288D1E7B288D12003003
:1000D80083120317071B4030831203138800033071
:1000E8009F000130F7070318F80A0030F8070C1FC3
:1000F8008A280C1377087804031987281E088800B3
:10010800831603138D12023083129F007308FF00B9
:1001180072088A0071088400700E8300FE0E7E0E3D
:100128000900C0308B002030831603138D00A230E5
:10013800970084308312031787000800831603137F
:100148009F01C0308B0040308C0040308312031375
:080158009F000800FF34FF3492
:04400E00E4C0FFFE0D
:00000001FF
