:060000000A128A11122809
:10000800FE00030EF1000408F2000A08F300831250
:1000180003137F08F4000A128A1159280A128A1158
:10002800152883010A128A111928831203138501DE
:100038008601870188018901831603178901013028
:10004800880001308316031385000130860087017C
:100058008801F8308900083081009F0141308312FF
:1000680003139F00FF3088000230F7008630F60047
:100078009930F500F50B3E28F60B3E28F70B3E2885
:100088008312031388010230F7008630F600993096
:10009800F500F50B4D28F60B4D28F70B4D280A12E5
:1000A8008A1171200A128A1158288D1E66288D120D
:1000B800003083120317071B4030F00070088312CA
:1000C800031388047408FF0073088A007208840008
:1000D800710E8300FE0E7E0E0900C0308B002030AA
:1000E800831603138D00A2309700D43083120317B0
:0400F8008700080075
:04400E00E4C0FFFE0D
:00000001FF
