:060000000A128A11FC2F18
:100F560013308316031392006C3083120313970029
:100F660005309500043092000F30F00070088804B8
:100F76000800831203138501860187018801890110
:100F86008316031789010130880001308316031385
:100F960085000130860087018801F8308900083015
:100FA60081009F014130831203139F00FF308800A8
:100FB6000230F3008630F2009930F100F10BE12F98
:100FC600F20BE12FF30BE12F83120313880102309A
:100FD600F3008630F2009930F100F10BF02FF20B9E
:100FE600F02FF30BF02F0A128A11AB270A128A117F
:0A0FF600FB2F83010A128A11BC2FA1
:04400E00E4C0FFFE0D
:00000001FF
