:060000000A128A11F02F24
:100D6400831203139F149F18B52E1E080800003425
:100D740001340234033407340734073407340E349F
:100D84000F340F340F3415341534173417347E08E8
:100D94008A007F088200C9260A128A118000840A08
:100DA40004087D0603190034FF0A0319FE0ACD2E38
:100DB4008312031306080139F0007008F2001A3098
:100DC400F100F830F000F00BE52EF10BE52E0000F9
:100DD40083120313060801397206031DDA2E720802
:100DE4000800831203130808F3007308F600103098
:100DF40088000A128A11B2260A128A11F3007308B3
:100E0400F700F70EF70CF70C0330F7057608C03936
:100E1400770410388312031388000A128A11DA2621
:100E24000A128A11003A031DFB2E83120313880150
:100E34000230F5008630F4009930F300F30B202FD4
:100E4400F40B202FF50B202F77088312031388004F
:100E54000330F5000830F4007730F300F30B302F43
:100E6400F40B302FF50B302F83120313880102305B
:100E7400F5008630F4009930F300F30B3F2FF40BA8
:100E84003F2FF50B3F2F7608831203138800770852
:100E94000800203084003330F8000408F9001030D2
:100EA400FA007808840083130008FB00F80A790824
:100EB40084007B088000F90AFA0B532F8312031372
:100EC4008501860187018801890183160317890139
:100ED4000130880001308316031385000130860039
:100EE40087018801F8308900083081009F01413072
:100EF400831203139F00FF3088000230FA0086300B
:100F0400F9009930F800F80B852FF90B852FFA0BAF
:100F1400852F8312031388010230FA008630F9000A
:100F24009930F800F80B942FF90B942FFA0B942FA7
:100F340080308312031388000A128A11F3260A12DE
:100F44008A11F800780883120313B2004030880035
:100F54000A128A11F3260A128A11F80078088312F9
:100F64000313B1000310B20D0310B20D32083104A3
:100F7400F8007808B0003008203E8400831300088D
:100F84008800C030F800780888040A128A11DA262A
:100F94000A128A11003A0319C72F0330FA000830E5
:100FA400F9007730F800F80BD52FF90BD52FFA0B91
:100FB400D52F0A128A11DA260A128A11013A031964
:100FC400DB2F0330FA000830F9007730F800F80B13
:100FD400E92FF90BE92FFA0BE92F9A2F83134330EA
:100FE400FD000630FE00B930FF00333084000A12E1
:0C0FF4008A11CD2683010A128A114B2FAE
:04400E00E4C0FFFE0D
:00000001FF
