:020000040000FA
:0400000000008F2845
:040004000034003490
:020008007D2851
:06000A00F830A300000025
:10001000A30B07280000000000000800A400052032
:10002000A40B0F280800A50064300E20A50B14288F
:1000300008009F149F1C1A281E0808000608013992
:10004000A60014300E20060801392606031D1E28BE
:10005000260808000808A80088012808C039880078
:1000600008161920C039A700A71B3E28271B3B28CC
:10007000081401304528881402304528271B4328DE
:1000800008150430452888150830A7001E200618DA
:100090002C288801033013202708880004301320FF
:1000A0008801033013202808880027080800080862
:1000B000A80088012808C039880008161920C0390E
:1000C000A7000310A70CA70CA70CA70CA70CA70C44
:1000D0000808FC39270488001E20061859288801C2
:1000E00003301320270888000430132088010330D0
:1000F0001320280888002708080009008207003418
:10010000013402340334043405340634073408342B
:1001100009340A340B340C340D340E340F3400001F
:1001200085018601870188018901831603178901EA
:1001300001308800831603130130850001308600EA
:10014000003087008801F8308900010808398100F3
:100150009F018312031341309F00FF30880003305A
:100160001320880103301320000088175720A100B6
:10017000881308175720A2000310A10D210D220794
:100180007E208800881708170618C42808138813CB
:06019000061CC828B4287B
:02400E00A4000C
:02401000FF3E71
:00000001FF
