:020000040000FA
:04000000000089284B
:040004000034003490
:0200080084284A
:06000A001F30A300A30B50
:100010000728000000000800F830A3000000A30B30
:100020000E280000000000000800A4000C20A40B13
:1000300016280800A50064301520A50B1B28080011
:100040009F149F1C21281E08080006080139A600DD
:1000500014301520060801392606031D2528260818
:1000600008000808A80088012808C0398800081678
:100070002020C039A700A71B4528271B42280814A9
:1000800001304C28881402304C28271B4A280815B8
:1000900004304C2888150830A7002520061833287E
:1000A000880103301A202708880004301A208801AC
:1000B00003301A2028088800270808000808A8002C
:1000C00088012808C039880008162020C039A700F8
:1000D0000310A70CA70CA70CA70CA70CA70C0808CB
:1000E000FC39270488002520061860288801033081
:1000F0001A202708880004301A20880103301A20AB
:100100002808880027080800831203138B18081496
:100110000900000085018601870188018901831695
:10012000031789010130880083160313013085000D
:1001300001308600003087008801F830890001080E
:10014000083981009F018312031341309F00FF3063
:10015000880003301A20880103301A208312031309
:0E01600090308B008316031301130000B528A6
:02400E00A4000C
:02401000FF3E71
:00000001FF
