:060000000A128A11122809
:10000800FE00030EF1000408F2000A08F300831250
:1000180003137F08F4000A128A115F280A128A1152
:100028001528F801F90183010A128A111B28831285
:100038000313850186018701880189018316031747
:1000480089010130880001308316031385000130CF
:10005800860087018801F8308900083081009F01F7
:100068004130831203139F00FF3088000230F700ED
:100078008630F6009930F500F50B4028F60B40283D
:10008800F70B40288312031388010230F7008630EB
:10009800F6009930F500F50B4F28F60B4F28F70BB3
:1000A8004F280A128A1176200A128A1179088312B7
:1000B800031388005A280B1C6B280608F0007008E8
:1000C800F8000B107908013EF0007008F900740878
:1000D800FF0073088A0072088400710E8300FE0E08
:1000E8007E0E0900013083160313960088308B00BA
:0200F8000800FE
:04400E00E4C0FFFE0D
:00000001FF
