:060000000A128A11122809
:10000800FE00030EF1000408F2000A08F300831250
:1000180003137F08F4000A128A115E280A128A1153
:100028001528F80183010A128A111A28831203136A
:1000380085018601870188018901831603178901D3
:1000480001308800013083160313850001308600D3
:1000580087018801F8308900083081009F0141300C
:10006800831203139F00FF3088000230F7008630A8
:10007800F6009930F500F50B3F28F60B3F28F70BF3
:100088003F288312031388010230F7008630F600F8
:100098009930F500F50B4E28F60B4E28F70B4E2835
:1000A8000A128A1173200A128A117808831203131C
:1000B800880059280B1C68280B100130F0007008C4
:1000C800F8070608031965287408FF0073088A00F2
:1000D80072088400710E8300FE0E7E0E09008830BF
:0C00E8008B000130831603139600080003
:04400E00E4C0FFFE0D
:00000001FF
