:020000040000FA
:0400000000008D2847
:040004000034003490
:0200080084284A
:06000A00F830A100000027
:10001000A10B072800000000000008001F30A1000D
:10002000A10B1028000000000800A2000520A20B70
:1000300016280800A30064301520A30B1B28080015
:100040009F149F1C21281E08080006080139A400DF
:1000500014301520060801392406031D252824081C
:1000600008000808A60088012608C039880008167C
:100070002020C039A500A51B4528251B42280814AF
:1000800001304C28881402304C28251B4A280815BA
:1000900004304C2888150830A50025200618332880
:1000A000880103301A202508880004301A208801AE
:1000B00003301A2026088800250808000808A60032
:1000C00088012608C039880008162020C039A500FC
:1000D0000310A50CA50CA50CA50CA50CA50C0808D7
:1000E000FC39250488002520061860288801033083
:1000F0001A202508880004301A20880103301A20AD
:100100002608880025080800090020180134A018D6
:10011000053420190934A0190C340000850186012A
:10012000870188018901831603178901013088003E
:1001300083160313013085000130860000308700EC
:100140008801F83089000108083981009F01831275
:10015000031341309F00FF30880003301A208801CC
:1001600003301A200130A000FF3FFF3F00002008AD
:1001700006183120A0008520B40008101C30B500FE
:10018000B503350834060319081488140E20350801
:08019000003A031DC028B62847
:02400E00A4000C
:02401000FF3E71
:00000001FF
