:100000000A128A11FC2F00308A000408840A820731
:0A00100000340734053409340534C8
:100CC600831203139F149F18662E1E0808000A122B
:100CD6008A11BB260A128A110A128A11BB260A1227
:100CE6008A110A128A119B260A128A110A128A117D
:100CF6009B260A128A110A128A119B260800831261
:100D0600031306080139F0007008F2001A30F100EA
:100D1600F830F000F00B8D2EF10B8D2E00008312B3
:100D26000313060801397206031D822E7208080095
:100D360080308312031388000230F2008630F100FF
:100D46009930F000F00BA52EF10BA52EF20BA52E77
:100D56008312031388010230F2008630F1009930C5
:100D6600F000F00BB42EF10BB42EF20BB42E0800EB
:100D760080308312031388000530F2009130F100B1
:100D8600CF30F000F00BC52EF10BC52EF20BC52EA1
:100D9600CC2E8312031388010230F2008630F10054
:100DA6009930F000F00BD52EF10BD52EF20BD52E87
:100DB6000800F600EC2E0A128A116A260A128A1117
:100DC600FA2EE72EE030E82EA030831203138800B7
:100DD600FA2E7608013A0319DE2E033A0319E42E99
:100DE600063A0319E52E0C3A0319E72EFA2E0630B9
:100DF600F5001330F400AD30F300F30B002FF40BC5
:100E0600002FF50B002F072F0630F5001330F400E6
:100E1600AD30F300F30B0D2FF40B0D2FF50B0D2F4B
:100E2600142F0630F5001330F400AD30F300F30B49
:100E36001A2FF40B1A2FF50B1A2F212F83120313D7
:100E46008801080083120313850186018701880142
:100E56008901831603178901013088000130831642
:100E6600031385000130860087018801F830890068
:100E7600083081009F014130831203139F00FF3029
:100E860088000230FB008630FA009930F900F90B31
:100E96004A2FFA0B4A2FFB0B4A2F831203138801A2
:100EA6000230FB008630FA009930F900F90B592F11
:100EB600FA0B592FFB0B592F0A128A1189270A128E
:100EC6008A11F900790883120313A00020080A1278
:100ED6008A11DC260A128A11013083120313A1003B
:100EE6000030A2002208803AFF0080307F02031DF6
:100EF6007E2F0A30210203185F2F0130831203135D
:100F0600A1070318A20A0030A207752F8312031344
:100F16000808F3007308F700103088000A128A11D7
:100F260063260A128A11F3007308F600F60EF60C11
:100F3600F60C0330F605AB2FF801F80AB92F02308C
:100F4600A72F0430A72F0830F3007308F800B92F35
:100F56007608003A03199F2F013A0319A22F033A84
:100F66000319A42F013A0319A62FB92F7708C03900
:100F7600780410388312031388000A128A11822615
:100F86000A128A11003A031D912F83120313880156
:100F96000230F5008630F4009930F300F30BD12FC0
:100FA600F40BD12FF50BD12F780883120313880089
:100FB6000330F5000830F4007730F300F30BE12F2F
:100FC600F40BE12FF50BE12F831203138801023096
:100FD600F5008630F4009930F300F30BF02FF40B94
:100FE600F02FF50BF02F770883120313880078088B
:0A0FF600080083010A128A11252F5A
:04400E00E4C0FFFE0D
:00000001FF
