:020000040000FA
:040000000000E228F2
:040004000034003490
:0200080084284A
:06000A001F30AB00AB0B40
:100010000728000000000800F830AB000000AB0B20
:100020000E280000000000000800AC000C20AC0B03
:1000300016280800AD0064301520AD0B1B28080001
:100040009F149F1C21281E08080006080139AE00D5
:1000500014301520060801392E06031D25282E0808
:1000600008000808B00088013008C0398800081668
:100070002020C039AF00AF1B45282F1B4228081491
:1000800001304C28881402304C282F1B4A280815B0
:1000900004304C2888150830AF0025200618332876
:1000A000880103301A202F08880004301A208801A4
:1000B00003301A20300888002F0808000808B00014
:1000C00088013008C039880008162020C039AF00E8
:1000D0000310AF0CAF0CAF0CAF0CAF0CAF0C08089B
:1000E000FC392F0488002520061860288801033079
:1000F0001A202F08880004301A20880103301A20A3
:10010000300888002F080800A300030EA400831203
:1001100003130D188C2891280D1083120313251436
:10012000912824088300A30E230E090083120317CD
:10013000081BCC28071B9E28AC2808008312031339
:100140001219121183120313081108108814831254
:100150000313BD30A9009D2883120313121D12152D
:1001600083120313BD30A9008312031327088316DB
:1001700003131206031DBD28C42883120313270886
:10018000831603139200CB288312031328088316C7
:1001900003139200CB289D28831203131219121106
:1001A00083120313A90C031CDC28D6288312031323
:1001B0002908B83AA900DC28290883120313081774
:1001C0008800CB280000850186018701880189010C
:1001D0008316031789010130880083160313013049
:1001E000850001308600003087008801F8308900E2
:1001F0000108083981009F018312031341309F00D9
:10020000FF30880003301A20880103301A2083123F
:1002100003171030890094308700943088008316CB
:10022000031388309700831203132030A700831232
:1002300003130430A80083160313920083120313E0
:100240004C30970004309500920183120313BD30A7
:10025000A9000000962083120313F030AC00152093
:08026000831203138801292910
:02400E00A4000C
:02401000FF3E71
:00000001FF
