:020000040000FA
:0400000000007A2959
:040004000034003490
:02000800862848
:06000A001F30B200B20B32
:100010000728000000000800F830B2000000B20B12
:100020000E280000000000000800B3000C20B30BF5
:1000300016280800B40064301520B40B1B280800F3
:100040009F149F1C21281E08080006080139B500CE
:1000500014301520060801393506031D25283508FA
:100060000800831203130808B70088013708C03955
:10007000880008162020C039B600B61B4728361B5A
:100080004428081400304E28881401304E28361BAE
:100090004C28081502304E2888150330B60025205C
:1000A00006183528880103301A20360888000430E5
:1000B0001A20880103301A20370888003608080003
:1000C0000808B70088013708C039880008162020C2
:1000D000C039B6000310B60CB60CB60CB60CB60C94
:1000E000B60C0808FC39360488002520061862285A
:1000F000880103301A203608880004301A2088014D
:1001000003301A203708880036080800A300030EC1
:10011000A400831203130D1F8D1A91280D18A8280F
:10012000AD280D138D1283120317081BA428071B7B
:10013000A0289C289C00AD288312031329089A2824
:10014000831203132A089A28831203132B089A2870
:100150000D10831203132514AD2824088300A30E69
:10016000230E0900831603130D108D120D13831235
:10017000031312191211831203139701831203132D
:100180008801831203133019E928B018DC283018CD
:10019000D028CA28831603130D148D160D170800D6
:1001A00008173120F020A9009C003120F020A70082
:1001B0003120F020A800CA2888173120F020AA009A
:1001C0009C003120F520013A03192F14031D2F1034
:1001D000CA28081788173120F020AB009C00CA28D5
:1001E00082071C3438347034E03482070034013420
:1001F00001340134AF1CAF05013A03192F10CA288E
:1002000083120317081B5B29071B31290B29831253
:1002100003132510080083120313121D12158312F5
:1002200003134C30970083120313880183120313C6
:100230000130B0008312031327088316031312063C
:10024000031D23292A298312031327088316031366
:10025000920078298312031328088316031392004F
:1002600078298312031312191211831203139701B1
:10027000831203138801831203130230B0000310AA
:10028000831203132F1C45294B29831203132E18A5
:100290000314AE0C582983120313AE1BAF142E188F
:1002A000AF10AF1854295629AE0C5829AE0D582955
:1002B0002E088800072983120313121912118312C2
:1002C000031397018312031388018312031304306D
:1002D000B00083120313AD0C031C75296F29831220
:1002E00003132D08B83AAD0075292D088800782928
:1002F0000310072900008501860187018801890113
:100300008316031789010130880083160313013017
:10031000850001308600003087008801F8308900B0
:100320000108083981009F018312031341309F00A7
:10033000FF30880003301A20880103301A2083120E
:10034000031710308900943087009430880083169A
:1003500003138E30970083120313E030A70083123B
:1003600003131C30A8008316031392008312031397
:100370004C309700043095009201831203131C3017
:10038000A900AA00AB00831203130B309D00E030DC
:100390009C0031309000831603130D148D160D1739
:1003A00083120313C0308B00831203132F108312A8
:1003B00003130130AE0083120313BD30AD00000003
:1003C0000618E529061CE229B2208312031325181A
:0403D0000021DF2900
:02400E00A4000C
:02401000FF3E71
:00000001FF
