:020000040000FA
:0400000000009E2836
:040004000034003490
:02000800952839
:06000A001F30AA00AA0B42
:100010000728000000000800F830AA000000AA0B22
:100020000E280000000000000800AB000C20AB0B05
:1000300016280800AC0064301520AC0B1B28080003
:100040009F149F1C21281E08080006080139AD00D6
:1000500014301520060801392D06031D25282D080A
:1000600008000808AF0088012F08C039880008166A
:100070002020C039AE00AE1B45282E1B4228081494
:1000800001304C28881402304C282E1B4A280815B1
:1000900004304C2888150830AE0025200618332877
:1000A000880103301A202E08880004301A208801A5
:1000B00003301A202F0888002E0808000808AF0017
:1000C00088012F08C039880008162020C039AE00EA
:1000D0000310AE0CAE0CAE0CAE0CAE0CAE0C0808A1
:1000E000FC392E048800252006186028880103307A
:1000F0001A202E08880004301A20880103301A20A4
:100100002F0888002E080800831203132918892855
:100110008F280310A90C2908B83AA90092280310C7
:10012000A90C9228290888000800A300030EA40047
:10013000992824088300A30E230E090000008501DE
:10014000860187018801890183160317890101301F
:1001500088008316031301308500013086000030CB
:1001600087008801F83089000108083981009F0163
:100170008312031341309F00FF30880003301A20A0
:10018000880103301A20831203171030890094303D
:1001900087009430880083160313823097008316FB
:1001A00003130F309200831203134C3097000C306E
:1001B000950004309200113090000B309D0025080E
:1001C0009C00C0309D008316031301308D00831204
:0A01D00003133430A9000000EB28EF
:02400E00A4000C
:02401000FF3E71
:00000001FF
