:060000000A128A11122809
:10000800FE00030EF0000408F1000A08F200831253
:1000180003137F08F3000A128A1159280A128A1159
:10002800152883010A128A111928831203138501DE
:100038008601870188018901831603178901013028
:10004800880001308316031385000130860087017C
:100058008801F8308900083081009F0141308312FF
:1000680003139F00FF3088000230F6008630F50049
:100078009930F400F40B3E28F50B3E28F60B3E2889
:100088008312031388010230F6008630F500993098
:10009800F400F40B4D28F50B4D28F60B4D280A12E9
:1000A8008A116C200A128A1158280C1F61280C1317
:1000B8001E08880001309F009F147308FF00720813
:1000C8008A0071088400700E8300FE0E7E0E0900FF
:1000D800831603139F01C0308B0040308C0003301F
:0800E800831203139F000800BE
:04400E00E4C0FFFE0D
:00000001FF
