:060000000A128A11122809
:10000800FE00030EF2000408F3000A08F40083124D
:1000180003137F08F5000A128A115F280A128A1151
:10002800152883010A128A111928831203138501DE
:100038008601870188018901831603178901013028
:10004800880001308316031385000130860087017C
:100058008801F8308900083081009F0141308312FF
:1000680003139F00FF308800023083120313A2009D
:100078008630A1009830A000A00B4028A10B402892
:10008800A20B402800008312031388010230831258
:100098000313A2008630A1009830A000A00B5228BC
:1000A800A10B5228A20B522800000A128A1185209F
:1000B8000A128A115E280C1F7A280C131E08F000F9
:1000C80002300310F00DFF3E031D6528831603134D
:1000D8001E08F10006300310F10CFF3E031D6F28C7
:1000E800710870078312031388009F147508FF00B6
:1000F80074088A0073088400720E8300FE0E7E0E58
:100108000900831603139F01C0308B0040308C0018
:0A0118003F30831203139F0008001C
:04400E00E4C0FFFE0D
:00000001FF
